:10000000C9C00000E6C00000E4C00000E2C000007B
:10001000E0C00000DEC00000DCC00000DAC000006C
:10002000D8C00000D6C000000C94BF0BD2C00000A6
:10003000D0C00000CEC00000CCC00000CAC000008C
:100040000C94A40BC6C00000C4C00000C2C00000D5
:10005000C0C00000BEC00000BCC00000BAC00000AC
:10006000B8C00000B6C00000B4C00000B2C00000BC
:10007000B0C00000AEC00000ACC00000AAC00000CC
:10008000A8C00000A6C00000A4C00000720B750B41
:10009000780B7A0B7C0B7E0B800B00407A10F35AA6
:1000A00000A0724E18090010A5D4E80000E87648B8
:1000B000170000E40B54020000CA9A3B000000E164
:1000C000F505000080969800000040420F000000F7
:1000D000A08601000000102700000000E8030000D7
:1000E00000006400000000000A00000000000100A1
:1000F000000000002C76D888DC674F0823DFC1DFC2
:10010000AE59E1B1B796E5E3E453C63AE6519976C4
:1001100096E8E6C28426EB898C9B62ED407C6FFCFE
:10012000EFBC9C9F40F2BAA56FA5F490055A2AF740
:100130005C936B6CF9676DC11BFCE0E40D47FEF549
:1001400020E6B500D0ED902E0300943577050080B1
:10015000841E080000204E0A000000C80C33333310
:10016000330F986E12831141EF8D2114893BE655B0
:1001700016CFFEE6DB18D1844B381BF77C1D901D93
:10018000A4BBE424203284725E228100C9F124ECF5
:10019000A1E53D2711241FBECFEFD0E1DEBFCDBFCB
:1001A00015E0A0E0B1E0E4E5F4E200E00BBF02C03E
:1001B00007900D92A033B107D9F725E0A0E3B5E091
:1001C00001C01D92AA36B207E1F70E94FD0B0C9404
:1001D000281216CFC09A8FE493EC0197F1F700C074
:1001E0000000C09808958FEF8ABB87BB18BA8FE3D1
:1001F0008BBBF0DF8FE08BBBEDDF8FE18BBBEACFFA
:10020000089581E08BBBE6CF0895C29A8BBBE2DFF5
:1002100088B3887F88BB08950F931F93CF93FC0109
:100220008081882351F08F01C0E0EFDFCF5FF801BC
:10023000EC0FF11D80818111F8CFCF911F910F91AB
:100240000895CF93DF9300D000D01F92CDB7DEB7D3
:100250004AE0BE016F5F7F4F0E947D0F8981D5DF2D
:100260008A81D3DF8B81D1DF8C81CFDF8D81CDDFA0
:100270000F900F900F900F900F90DF91CF910895F6
:100280000F931F93CF93DF93CDB7DEB72A970FB6A7
:10029000F894DEBF0FBECDBF1A821982FE013396DD
:1002A00028E0DF011D922A95E9F78E010F5F1F4FAD
:1002B00021E043E00E945E0F8981A7DF8A81A5DFEC
:1002C0008B81A3DF8C81A1DF8D819FDF8E819DDFFC
:1002D0002A960FB6F894DEBF0FBECDBFDF91CF9147
:1002E0001F910F9108958DDF80E88BBB73DF84E150
:1002F00091E092DF609138057091390580913A055F
:1003000090913B05BDDF80EC8BBB64DF81E291E027
:1003100083DF809132059091330593DF84E98BBBB5
:1003200059DF80E391E078DF8091300590913105CD
:1003300088CF089583E389B9109290008EE080936E
:10034000950088E18AB908955D9BFECF8CB9089528
:10035000CF93DF93EC018881882329F02196F4DF85
:1003600089918111FCCFDF91CF9108955F9BFECFE2
:100370008BB18CB108950F931F93CF93DF93CDB7BB
:10038000DEB72A970FB6F894DEBF0FBECDBF1A8234
:100390001982FE01339628E0DF011D922A95E9F7C4
:1003A0008E010F5F1F4F21E043E00E945E0F8981A5
:1003B000CBDF8A81C9DF8B81C7DF8C81C5DF8D816F
:1003C000C3DF8E81C1DF2A960FB6F894DEBF0FBE61
:1003D000CDBFDF91CF911F910F91089587E082BB30
:1003E0002FE78AE196E0215080409040E1F700C07D
:1003F00000008DE082BB2FE78AE196E0215080402B
:100400009040E1F700C0000089E182BB2FE78AE15C
:1004100096E0215080409040E1F700C0000083E169
:1004200082BB2FE78AE196E0215080409040E1F7BF
:1004300000C0000008952F923F924F925F926F92FA
:100440007F928F929F92AF92BF92CF92DF92EF9264
:10045000FF920F931F93CF93DF9300D000D0CDB7BF
:10046000DEB78FEF9FEF9A8389839C838B8300E0B5
:1004700010E00F2EF2E6EF2EF12CF02D0F2EFEEFF6
:100480005F2EF02D6894662461F8712CCC24C394FF
:10049000D12C0F2EFDEF4F2EF02D6894AA24A2F838
:1004A000B12C0F2EFBEF3F2EF02D0F2EF7E08F2EED
:1004B000912CF02DF701508204991DC081E3A5DE37
:1004C000F801EE0FFF1F81E090E08C0F9D1FE80FF9
:1004D000F91FD182C0820F5F1F4F023011050CF04F
:1004E0002BC19FE7EAE1F6E09150E040F040E1F7F0
:1004F00000C000003FC005991DC082E386DEF80100
:10050000EE0FFF1F81E090E08C0F9D1FE80FF91F99
:10051000718260820F5F1F4F023011050CF00CC119
:100520009FE7EAE1F6E09150E040F040E1F700C0DB
:10053000000020C006991EC083E367DEF801EE0FBD
:10054000FF1F81E090E08C0F9D1FE80FF91F83E0F3
:1005500090E0918380830F5F1F4F023011050CF0F4
:10056000EBC09FE7EAE1F6E09150E040F040E1F7B0
:1005700000C00000F701408204991DC084E345DEFD
:10058000F801EE0FFF1F81E090E08C0F9D1FE80F38
:10059000F91FB182A0820F5F1F4F023011050CF0CE
:1005A000CBC09FE7EAE1F6E09150E040F040E1F790
:1005B00000C0000041C005991FC085E326DEF80198
:1005C000EE0FFF1F81E090E08C0F9D1FE80FF91FD9
:1005D00085E090E0918380830F5F1F4F023011050B
:1005E0000CF0AAC09FE7EAE1F6E09150E040F0404D
:1005F000E1F700C0000020C006991EC086E305DEBA
:10060000F801EE0FFF1F81E090E08C0F9D1FE80FB7
:10061000F91F86E090E0918380830F5F1F4F0230C7
:1006200011050CF089C09FE7EAE1F6E09150E04047
:10063000F040E1F700C00000F701308204991DC0CE
:1006400087E3E3DDF801EE0FFF1F81E090E08C0F00
:100650009D1FE80FF91F918280820F5F1F4F0230AC
:1006600011050CF069C09FE7EAE1F6E09150E04027
:10067000F040E1F700C0000040C005991FC088E3CA
:10068000C4DDF801EE0FFF1F81E090E08C0F9D1F8D
:10069000E80FF91F88E090E0918380830F5F1F4F80
:1006A000023011050CF048C09FE7EAE1F6E09150F6
:1006B000E040F040E1F700C000001FC006991DC0F7
:1006C00089E3A3DDF801EE0FFF1F81E090E08C0FBE
:1006D0009D1FE80FF91F89E090E0918380830F5FF1
:1006E0001F4F0230110544F59FE7EAE1F6E0915013
:1006F000E040F040E1F700C0000087EFF7018083A1
:10070000049918C018BA0F2EF3E12F2EF02D2BBA32
:1007100061DD80E27ADD01501109FFE72AE186E020
:10072000F15020408040E1F700C0000018BA2BBA19
:1007300051DDC0CE069933C089819A8199232CF06E
:10074000092E000CAA0BBB0B03C080E090E0DC017B
:100750004B815C815523D4F0880F991FAA1FBB1FC2
:100760008C019D01000F111F221F331F000F111F4D
:10077000221F331F800F911FA21FB31F052E000CD5
:10078000660B770B840F951FA61FB71F809360051C
:1007900090936105A0936205B09363051FC005990E
:1007A00089CE80E332DDF801EE0FFF1F81E090E09B
:1007B0008C0F9D1FE80FF91F118210820F5F1F4FD2
:1007C000023011050CF0B8CF9FE7EAE1F6E0915056
:1007D000E040F040E1F700C000006CCE0F900F90B9
:1007E0000F900F90DF91CF911F910F91FF90EF909D
:1007F000DF90CF90BF90AF909F908F907F906F9041
:100800005F904F903F902F9008952F923F924F927C
:100810005F926F927F928F929F92AF92BF92CF9290
:10082000DF92EF92FF920F931F93CF93DF93CDB799
:10083000DEB764970FB6F894DEBF0FBECDBF84E17C
:10084000E0E0F1E0DE01119601900D928A95E1F76A
:1008500000E010E00F2EF2E6EF2EF12CF02D0F2E1F
:10086000FEEF3F2EF02D6894662461F8712C8824E9
:100870008394912C0F2EFDEF4F2EF02D6894AA2417
:10088000A2F8B12C0F2EFBEF5F2EF02D0F2EF7E00C
:10089000CF2ED12CF02DF7013082049919C081E3BD
:1008A000B4DCF801EE0FFF1F81E090E08C0F9D1F7C
:1008B000E80FF91F918280820F5F1F4F9FE7EAE1E7
:1008C000F6E09150E040F040E1F700C0000037C092
:1008D000059919C082E399DCF801EE0FFF1F81E052
:1008E00090E08C0F9D1FE80FF91F718260820F5FEF
:1008F0001F4F9FE7EAE1F6E09150E040F040E1F75A
:1009000000C000001CC006991AC083E37EDCF80119
:10091000EE0FFF1F81E090E08C0F9D1FE80FF91F85
:1009200083E090E0918380830F5F1F4F9FE7EAE1B0
:10093000F6E09150E040F040E1F700C00000F70120
:100940004082049919C084E360DCF801EE0FFF1FB8
:1009500081E090E08C0F9D1FE80FF91FB182A0820B
:100960000F5F1F4F9FE7EAE1F6E09150E040F04053
:10097000E1F700C0000039C005991BC085E345DCE4
:10098000F801EE0FFF1F81E090E08C0F9D1FE80F34
:10099000F91F85E090E0918380830F5F1F4F9FE7F1
:1009A000EAE1F6E09150E040F040E1F700C00000DD
:1009B0001CC006991AC086E328DCF801EE0FFF1F61
:1009C00081E090E08C0F9D1FE80FF91F86E090E01A
:1009D000918380830F5F1F4F9FE7EAE1F6E091501C
:1009E000E040F040E1F700C00000F70150820499B8
:1009F00019C087E30ADCF801EE0FFF1F81E090E0E9
:100A00008C0F9D1FE80FF91FD182C0820F5F1F4F0F
:100A10009FE7EAE1F6E09150E040F040E1F700C0E6
:100A2000000039C005991BC088E3EFDBF801EE0F29
:100A3000FF1F81E090E08C0F9D1FE80FF91F88E0F9
:100A400090E0918380830F5F1F4F9FE7EAE1F6E01C
:100A50009150E040F040E1F700C000001CC0069952
:100A60001AC089E3D2DBF801EE0FFF1F81E090E0AE
:100A70008C0F9D1FE80FF91F89E090E09183808320
:100A80000F5F1F4F9FE7EAE1F6E09150E040F04032
:100A9000E1F700C0000087EFF7018083049918C0D8
:100AA00018BA0F2EF3E12F2EF02D2BBA93DB80E234
:100AB000ACDB01501109FFE72AE186E0F15020404C
:100AC0008040E1F700C0000018BA2BBA83DBE3CE08
:100AD00006992AC0FE013196AE014B5E5F4F80E061
:100AE00090E0DC01219131913323D4F0880F991FDC
:100AF000AA1FBB1F6C017D01CC0CDD1CEE1CFF1C72
:100B0000CC0CDD1CEE1CFF1CC80ED91EEA1EFB1E01
:100B1000C901330FAA0BBB0B8C0D9D1DAE1DBF1D54
:100B2000E417F507F9F61BC00599B5CE80E36DDB38
:100B3000F801EE0FFF1F81E090E08C0F9D1FE80F82
:100B4000F91F118210820F5F1F4F9FE7EAE1F6E065
:100B50009150E040F040E1F700C000009CCE80934F
:100B6000600590936105A0936205B0936305649658
:100B70000FB6F894DEBF0FBECDBFDF91CF911F91AE
:100B80000F91FF90EF90DF90CF90BF90AF909F902C
:100B90008F907F906F905F904F903F902F9008952F
:100BA000CF92DF92EF92FF92BC01990F880B990BC5
:100BB0000E94420E6B017C01DEDB20E030E048EC5D
:100BC00052E4C701B601C3D7FF90EF90DF90CF90FA
:100BD0000895CF92DF92EF92FF920F931F93CF93DE
:100BE000DF930FDBD0E8DBBBF5DA8FE391E014DBBA
:100BF000C0ECCBBBEFDA09DE00E615E0F80160815E
:100C00007181072E000C880B990B0E94420E6B011C
:100C10007C01B1DBC0925805D0925905E0925A058B
:100C2000F0925B058FE991E093DB8DE08DDB8AE04C
:100C30008BDBE7DADBBBCEDA82E591E0EDDACBBB2A
:100C4000C9DAE3DDF80160817181072E000C880BA1
:100C5000990B0E94420E6B017C018DDBC092540502
:100C6000D0925505E0925605F09257058EEB91E033
:100C70006FDBCBBBAFDA8DE067DB8AE065DBC1DA27
:100C8000DBBBA8DA85E691E0C7DACBBBA3DABDDD32
:100C9000F80160817181072E000C880B990BF2D747
:100CA0006B017C0168DBC0925005D0925105E09247
:100CB0005205F09253058CED91E04ADB8DE044DB68
:100CC0008AE042DB9EDADBBB85DA87E791E0A4DAD3
:100CD000CBBB80DA9ADDF80160817181072E000CB0
:100CE000880B990BCFD76B017C0145DBC0924C057B
:100CF000D0924D05E0924E05F0924F0589EF91E0BC
:100D000027DBCBBB67DA8DE01FDB8AE01DDB79DAFE
:100D1000DBBB60DA89E891E07FDACBBB5BDA8BDBA7
:100D2000F801808191813CDF60934805709349050B
:100D300080934A0590934B058DE991E009DB8DE0A6
:100D400003DB8AE001DB5DDADBBB44DA88EA91E0B1
:100D500063DACBBB3FDA6FDBF8018081918120DF62
:100D6000609344057093450580934605909347052D
:100D70008CEB91E0EDDA8DE0E7DA8AE0E5DA41DA52
:100D8000DBBB28DA87EC91E047DACBBB23DA53DB15
:100D9000F8018081918104DF6093400570934105E3
:100DA00080934205909343058AED91E0D1DA8DE07E
:100DB000CBDA8AE0C9DA25DADBBB0CDA84EE91E023
:100DC0002BDACBBB07DA37DBF80180819181E8DED3
:100DD00060933C0570933D0580933E0590933F05DD
:100DE00087EF91E0B5DA8DE0AFDA8AE0ADDA09DAC3
:100DF000CBBBF0D981E092E00FDADF91CF911F9168
:100E00000F91FF90EF90DF90CF9008958DE09CDAE6
:100E10008AE09ADA60914C0570914D0580914E05FB
:100E200090914F05A8DA89EF91E092DA8DE08CDAA3
:100E30008AE08ADA609154057091550580915605D3
:100E40009091570598DA8EEB91E082DA8DE07CDAAA
:100E50008AE07ADA609158057091590580915A05B7
:100E600090915B0588DA8FE991E072DA8DE06CDAB7
:100E70008AE06ADA609150057091510580915205BF
:100E80009091530578DA8CED91E062DA8DE05CDACE
:100E90008AE05ACA08958DE057DA8AE055DA6091FF
:100EA0005D0570E080E090E0EBD665DA84E192E0E9
:100EB0004FDA8DE049DA8AE047CA08958DE044DAD6
:100EC0008AE042DA60915C0570E080E090E0D8D67C
:100ED00052DA84E192E03CDA8DE036DA8AE034CA14
:100EE00008952F923F924F925F926F927F928F92CE
:100EF0009F92AF92BF92CF92DF92EF92FF920F93A9
:100F00001F93CF93DF93CDB7DEB764970FB6F894F6
:100F1000DEBF0FBECDBF69837A838B839C832D8315
:100F20003E834F835887E986FA860B871C87AD86F8
:100F3000BE86CF86D88A09E010E0212C312C298189
:100F40003A814B815C8169A57AA58BA59CA54AD77E
:100F500066D62B013C012D813E814F8158856DA9BC
:100F60007EA98FA998AD3ED75AD64B015C01298541
:100F70003A854B855C856DA57EA58FA598A932D74E
:100F80004ED66B017C012D853E854F85588969A918
:100F90007AA98BA99CA926D742D6698B7A8B8B8B91
:100FA0009C8B240C351C280C391C2C0C3D1C2989CD
:100FB0003A89220E331EB201550C880B990B62D66A
:100FC0009B01AC0169817A818B819C8157D56983B2
:100FD0007A838B839C83B401990C880B990B52D62E
:100FE0009B01AC016D817E818F81988547D56D8392
:100FF0007E838F839887B601DD0C880B990B42D6D0
:101000009B01AC0169857A858B859C8537D569877D
:101010007A878B879C87A989BA89BD01BB0F880B0A
:10102000990B30D69B01AC016D857E858F859889A3
:1010300025D56D877E878F87988B0150110909F020
:101040007ECFB101330C880B990B1CD620E030E029
:1010500046E153E4C7D620E030E84BE355E477D5CA
:101060006B017C0188D9C0923805D0923905E09295
:101070003A05F0923B0589819A81AB81BC818093CE
:101080004C0590934D05A0934E05B0934F058D816F
:101090009E81AF81B8858093540590935505A093A8
:1010A0005605B093570589859A85AB85BC85809395
:1010B000580590935905A0935A05B0935B058D850B
:1010C0009E85AF85B8898093500590935105A09374
:1010D0005205B0935305C701B60164960FB6F89454
:1010E000DEBF0FBECDBFDF91CF911F910F91FF905B
:1010F000EF90DF90CF90BF90AF909F908F907F90B8
:101100006F905F904F903F902F900895CF92DF9215
:10111000EF92FF92CF93DF93EC01CB01BA0120E075
:1011200030E04AE754E45ED66B017C01BE010D2E2F
:10113000000C880B990BA6D59B01AC01C701B60129
:1011400006D56DD5CC32D14091F4709337056093BC
:101150003605072E000C880B990B94D50CD98DE120
:1011600092E0F6D88DE0F0D88AE0EED811C0709306
:10117000350560933405072E000C880B990B82D53A
:10118000FAD88AE392E0E4D88DE0DED88AE0DCD8B1
:10119000DF91CF91FF90EF90DF90CF900895609115
:1011A000320570913305072E000C880B990B6AD518
:1011B000AB01BC0180E090E00E9403126091300519
:1011C00070913105072E000C880B990B5BD5AB0194
:1011D000BC0184E090E00E940312409138055091D8
:1011E000390560913A0570913B0588E090E00E94D6
:1011F000031240914C0550914D0560914E05709140
:101200004F058CE090E00E940312409154055091EC
:101210005505609156057091570580E190E00E9458
:101220000312409150055091510560915205709103
:10123000530584E190E00E940312409158055091BB
:10124000590560915A0570915B0588E190E00E9414
:10125000031240913C0550913D0560913E0570910F
:101260003F058CE190E00E940312409144055091AB
:101270004505609146057091470580E290E00E9427
:1012800003124091400550914105609142057091D3
:10129000430584E290E00E9403124091480550917A
:1012A000490560914A0570914B0588E290E00E94E3
:1012B00003128DE049D88AE047D887E592E048D804
:1012C0008DE042D88AE040C80895CF93DF9380E054
:1012D00090E00E94FE11A3D4EB017093330560935C
:1012E000320584E090E00E94FE1199D4709331059C
:1012F0006093300588E090E00E94FE11609338050D
:101300007093390580933A0590933B058CE090E00B
:101310000E94FE1160934C0570934D0580934E051D
:1013200090934F0580E190E00E94FE116093540578
:1013300070935505809356059093570584E190E08E
:101340000E94FE11609350057093510580935205E1
:101350009093530588E190E00E94FE116093580538
:101360007093590580935A0590935B058CE190E04A
:101370000E94FE1160933C0570933D0580933E05ED
:1013800090933F0580E290E00E94FE116093440537
:1013900070934505809346059093470584E290E05D
:1013A0000E94FE11609340057093410580934205B1
:1013B0009093430588E290E00E94FE1160934805F7
:1013C0007093490580934A0590934B051C161D06A2
:1013D0009CF48DE00E94A4018AE00E94A4018DE6A5
:1013E00092E00E94A8010E9473018DE00E94A40176
:1013F0008AE00E94A4010AC08DE00E94A4018AE054
:101400000E94A40185E892E00E94A801DF91CF919B
:1014100008958F929F92AF92BF92CF92DF92EF92F8
:10142000FF921F93CF93DF938099EAC06B017C01F9
:101430002FE78AE196E0215080409040E1F700C01C
:10144000000020E030E046E953E4C701B6017BD359
:1014500081110BC08BE992E00E94A8018DE00E94EF
:10146000A4018AE00E94A4010AC08BEB92E00E94D2
:10147000A8018DE00E94A4018AE00E94A40120E05E
:1014800030E04AE754E4C701B60161D34B015C0187
:10149000209138053091390540913A0550913B052E
:1014A00052D388230CF09CC00E94EE018BED92E099
:1014B0000E94A8018DE00E94A4018AE00E94A4017C
:1014C000E5E6F0E082E080832FEF89E698E12150A5
:1014D00080409040E1F700C0000081E080832FEF62
:1014E00089E698E1215080409040E1F700C000007B
:1014F00010820E94EE01A50194016091380570915F
:10150000390580913A0590913B05B8D26093380532
:101510007093390580933A0590933B0520E030E0C5
:1015200046E953E4C701B6010ED3811113C080917F
:1015300036059091370501979093370580933605CE
:1015400080913205909133050196909333058093F5
:10155000320512C080913405909135050197909322
:1015600035058093340580913005909131050196C1
:1015700090933105809330050E9473018DEE92E0C7
:101580000E94A8018DE00E94A4018AE00E94A401AB
:10159000C5E6D0E011E018832FEF89E698E12150ED
:1015A00080409040E1F700C0000018820E94EE01E8
:1015B0000E94EE018FEF92E00E94A8018DE00E9450
:1015C000A4018AE00E94A40118832FEF89E698E124
:1015D000215080409040E1F700C00000188210C008
:1015E0008DE00E94A4018AE00E94A40182E193E0C0
:1015F0000E94A8018DE00E94A4018AE00E94A4013B
:10160000DF91CF911F91FF90EF90DF90CF90BF902F
:10161000AF909F908F900895CF938DE00E94A4018A
:101620008AE00E94A40184E393E00E94A8018DE077
:101630000E94A4018AE00E94A40188E593E00E9430
:10164000A8018DE00E94A4018AE00E94A40187E71E
:1016500093E00E94A8018DE00E94A4018AE00E940C
:10166000A40185EA93E00E94A8018DE00E94A401F4
:101670008AE00E94A40180EC93E00E94A8018DE022
:101680000E94A4018AE00E94A40187ED93E00E94D9
:10169000A8018DE00E94A4018AE00E94A40184EFC9
:1016A00093E00E94A8018DE00E94A4018AE00E94BC
:1016B000A4018DE00E94A4018AE00E94A40183E1BC
:1016C00094E00E94A8010E94B601C82F0E94A401C4
:1016D0008C2F90E0FC01F197E730F10598F4EA5B7C
:1016E000FF4FE3C30E9473011DC00E9473011AC023
:1016F0008DDB18C0D0DB16C0E1DB14C050DD12C09A
:10170000E4DD10C08DE00E94A4018AE00E94A401E3
:101710008BE294E00E94A8018DE00E94A4018AE07F
:101720000E94A4018DE00E94A4018AE00E94A4010D
:101730008CE394E00E94A8018DE00E94A4018AE05D
:101740000E94A401CF9108951F920F920FB60F929D
:1017500011248F9380915F058F5F80935F058A3797
:1017600040F080915D058F5F80935D0512BE109201
:101770005F058F910F900FBE0F901F9018951F92CD
:101780000F920FB60F9211248F9380915E058F5F99
:1017900080935E058A3740F080915C058F5F80936F
:1017A0005C0514BC10925E058F910F900FBE0F90D8
:1017B0001F90189580E88BBB0E94EA0088E494E0B3
:1017C0000E940C0180EC8BBB0E94EA0089E594E04A
:1017D0000E940C0184E98BBB0E94EA0084E694E03D
:1017E0000E940C012FEF83ED90E321508040904048
:1017F000E1F700C00000EDC908958CEF84BB8EEFC7
:1018000081BB82B98FE8809361008FE08093640090
:1018100084E085BB81E082BBF89478940E949A01B1
:1018200088E794E00E94A8018DE00E94A4018AE06C
:101830000E94A4010E94F30080E88BBB0E94EA0092
:1018400082E994E00E940C012FEF8EE994E221508E
:1018500080409040E1F700C000000E9401018DE04F
:101860000E94A4018AE00E94A40184EA94E00E94FC
:10187000A8018DE00E94A4018AE00E94A4018FEBE0
:1018800094E00E94A8018DE00E94A4018AE00E94D9
:10189000A40184ED94E00E94A8018DE00E94A401BF
:1018A0008AE00E94A4010E94B601C82F0E94A401F0
:1018B0008DE00E94A4018AE00E94A401C93551F084
:1018C00018F4CE3459F00CC0CE3631F0C93741F49B
:1018D000FCDC16C0FADC14C06DDF12C06BDF10C078
:1018E0008DE00E94A4018AE00E94A4018CEE94E0A5
:1018F0000E94A8018DE00E94A4018AE00E94A40138
:101900008BEF94E00E94A8018DE00E94A4018AE080
:101910000E94A40183E195E00E94A801A0905005D7
:10192000B0905105C0905205D0905305E0905805F5
:10193000F090590500915A0510915B0520915405CE
:1019400030915505409156055091570560914C05D1
:1019500070914D0580914E0590914F05E09147059E
:10196000EF93E0914605EF93E0914505EF93E09109
:101970004405EF93E0914305EF93E0914205EF9327
:10198000E0914105EF93E0914005EF93E0914B0525
:10199000EF93E0914A05EF93E0914905EF93E091D1
:1019A0004805EF93E0913F05EF93E0913E05EF93FB
:1019B000E0913D05EF93E0913C05EF9392DA88E2E8
:1019C00095E00E94A8018DE00E94A4018AE00E9497
:1019D000A401409138055091390560913A05709104
:1019E0003B058CE291E092DB40913805509139053E
:1019F00060913A0570913B0584EF91E087DB12BE60
:101A000014BC8DB79EB740960FB6F8949EBF0FBE1C
:101A10008DBFD9E0C1E198990DC0C5BB83B7846083
:101A200083BF87B7816087BF60E070E086E993E499
:101A3000F0DCF1CF99990DC0D5BB83B7846083BF2B
:101A400087B7816087BF60E070E08AEF93E4E1DCF4
:101A5000E2CF989BE0CF989BDECF85B5846085BDB3
:101A600087B7806487BFD8DD9FEF29E688E1915072
:101A700020408040E1F700C00000CDCF5058BB2788
:101A8000AA270ED075C166D130F06BD120F031F4A9
:101A90009F3F11F41EF45BC10EF4E095E7FB51C1CA
:101AA000E92F77D180F3BA17620773078407950788
:101AB00018F071F49EF58FC10EF4E0950B2EBA2F3D
:101AC000A02D0B01B90190010C01CA01A001112444
:101AD000FF27591B99F0593F50F4503E68F11A16F0
:101AE000F040A22F232F342F4427585FF3CF469581
:101AF00037952795A795F0405395C9F77EF41F16A3
:101B0000BA0B620B730B840BBAF09150A1F0FF0F6C
:101B1000BB1F661F771F881FC2F70EC0BA0F621F58
:101B2000731F841F48F4879577956795B795F79548
:101B30009E3F08F0B3CF9395880F08F09927EE0FDA
:101B4000979587950895D9D008F481E008950CD031
:101B50000FC107D140F0FED030F021F45F3F19F003
:101B6000F0C0511139C1F3C014D198F39923C9F3CE
:101B70005523B1F3951B550BBB27AA276217730793
:101B8000840738F09F5F5F4F220F331F441FAA1F47
:101B9000A9F333D00E2E3AF0E0E830D09150504007
:101BA000E695001CCAF729D0FE2F27D0660F771FB5
:101BB000881FBB1F261737074807AB07B0E809F097
:101BC000BB0B802DBF01FF2793585F4F2AF09E3F2C
:101BD000510568F0B6C000C15F3FECF3983EDCF3FE
:101BE000869577956795B795F7959F5FC9F7880FA5
:101BF000911D9695879597F90895E1E0660F771FF7
:101C0000881FBB1F621773078407BA0720F0621B87
:101C1000730B840BBA0BEE1F88F7E095089504D080
:101C20006894B111D9C00895BCD088F09F5790F046
:101C3000B92F9927B751A0F0D1F0660F771F881FF1
:101C4000991F1AF0BA95C9F712C0B13081F0C3D00C
:101C5000B1E00895C0C0672F782F8827B85F39F0AA
:101C6000B93FCCF3869577956795B395D9F73EF450
:101C700090958095709561957F4F8F4F9F4F0895F8
:101C8000E89409C097FB3EF4909580957095619516
:101C90007F4F8F4F9F4F9923A9F0F92F96E9BB27CC
:101CA0009395F695879577956795B795F111F8CF48
:101CB000FAF4BB0F11F460FF1BC06F5F7F4F8F4FB3
:101CC0009F4F16C0882311F096E911C0772321F0A9
:101CD0009EE8872F762F05C0662371F096E8862F41
:101CE00070E060E02AF09A95660F771F881FDAF798
:101CF000880F9695879597F90895990F0008550FC5
:101D0000AA0BE0E8FEEF16161706E807F907C0F081
:101D100012161306E407F50798F0621B730B840B89
:101D2000950B39F40A2661F0232B242B252B21F463
:101D300008950A2609F4A140A6958FEF811D811D03
:101D4000089597F99F6780E870E060E008959FEF3D
:101D500080EC089500240A94161617061806090642
:101D6000089500240A941216130614060506089511
:101D7000092E0394000C11F4882352F0BB0F40F499
:101D8000BF2B11F460FF04C06F5F7F4F8F4F9F4FD9
:101D9000089557FD9058440F551F59F05F3F71F05B
:101DA0004795880F97FB991F61F09F3F79F08795C2
:101DB0000895121613061406551FF2CF4695F1DF4B
:101DC00008C0161617061806991FF1CF86957105DB
:101DD000610508940895E894BB2766277727CB010F
:101DE00097F908950BD0C4CFB5DF28F0BADF18F00B
:101DF000952309F0A6CFABCF1124EECFCADFA0F315
:101E0000959FD1F3950F50E0551F629FF001729F8F
:101E1000BB27F00DB11D639FAA27F00DB11DAA1FAE
:101E2000649F6627B00DA11D661F829F2227B00DFB
:101E3000A11D621F739FB00DA11D621F839FA00D86
:101E4000611D221F749F3327A00D611D231F849FD6
:101E5000600D211D822F762F6A2F11249F5750402D
:101E60008AF0E1F088234AF0EE0FFF1FBB1F661FC8
:101E7000771F881F91505040A9F79E3F510570F081
:101E800060CFAACF5F3FECF3983EDCF38695779561
:101E90006795B795F795E7959F5FC1F7FE2B880F7C
:101EA000911D9695879597F90895EE0FFF1F0024D1
:101EB000001C0BBE0790F691E02D0994EF920F9352
:101EC0001F93CF93DF93E80147FD02C034E001C0C8
:101ED00034E1042E000C550B57FF03C0519541957A
:101EE0005109E32E022F242FAE012AD0CE01DF911B
:101EF000CF911F910F91EF900895BB274A3031F495
:101F0000992322F4BDE2909581959F4F01C0BB2794
:101F1000FB015527AA27880F991FAA1FA41710F0A5
:101F2000A41B83955051B9F7A05DAA3308F0A95DB1
:101F3000A193009779F7B111B1931192CB014EC2E1
:101F40008F929F92AF92BF92CF92DF92EF92FF92C9
:101F50000F931F93CF93DF93CDB7DEB729970FB6BB
:101F6000F894DEBF0FBECDBF6A01122FB02E2BE357
:101F7000201720F0FF24F394F00E02C02CE3F22E81
:101F80000F2D27E0AE014F5F5F4F50D1BC0149815B
:101F9000842F8970813031F0E1FC06C0E0FE06C07C
:101FA00090E205C09DE203C09BE201C090E05E2D7F
:101FB000507143FF3CC0911102C083E001C084E036
:101FC000811718F4212F281B01C020E051110BC0EC
:101FD000F601822F30E2882319F031938150FBCF34
:101FE000C20ED11C20E0992329F0D6019C93F60162
:101FF00031966F01C6010396E2FE0AC03EE4D601A7
:102000003C9341E411964C93119712963C9306C071
:102010003EE6F601308341E641833283FC01322FF4
:1020200040E2332309F442C041933150FACF42FFDA
:1020300044C0911102C083E001C084E0811718F40C
:10204000212F281B01C020E051110BC0F601822F67
:1020500030E2882319F031938150FBCFC20ED11C9E
:1020600020E0992329F0D6019C93F60131966F0167
:10207000C6010396E2FE0BC039E4D6013C933EE470
:1020800011963C93119736E412963C9307C039E6BB
:10209000F60130833EE6318336E63283FC01322F8F
:1020A00040E2332319F041933150FBCFFC01E20FA2
:1020B000F11D10828EEF9FEFA6C021E030E091115C
:1020C00002C020E030E0161617061CF4FB01319622
:1020D00002C0E1E0F0E02E0F3F1FBB2021F0EB2D0E
:1020E000F0E0319602C0E0E0F0E02E0F3F1FE12F5C
:1020F000F0E02E173F071CF4121B212F01C020E037
:102100008E2D887159F4F601822F30E2882319F060
:1021100031938150FBCFC20ED11C20E0992329F0CE
:10212000D6019C93F60131966F0151110BC0F60157
:10213000822F90E3882319F091938150FBCFC20E38
:10214000D11C20E00F2D060F9A81342F307144FFEF
:1021500003C0913309F40150101624F4093018F02B
:1021600008E001C001E0AB0177FF02C040E050E0B1
:10217000FB01E41BF50BA1E0B0E0AC0FBD1FEA0FC3
:10218000FB1F8EE2A82E4B01801A91080B2D10E048
:102190001195019511094F3FBFEF5B0721F4D6015F
:1021A000AC9211966D01641775072CF08416950694
:1021B00014F4818101C080E3415051093196D60168
:1021C00011967D014017510724F0D6018C936701C9
:1021D000E2CF6417750739F4963320F4953319F478
:1021E000311101C081E3F6018083F701822F90E273
:1021F000882319F091938150FBCFF701E20FF11D75
:10220000108280E090E029960FB6F894DEBF0FBEF2
:10221000CDBFDF91CF911F910F91FF90EF90DF9095
:10222000CF90BF90AF909F908F900895283008F086
:1022300027E03327DA01990F311D87FD9160009661
:102240006105710539F432602E5F3D9330E32A95C4
:10225000E1F708959F3F30F080387105610509F07E
:102260003C5F3C5F3D93913008F08068911DDF93A7
:10227000CF931F930F93FF92EF92192F987F96950C
:10228000E92F96959695E90FFF27EC50FF4F992778
:102290003327EE24FF24A701E70105900894079453
:1022A00028F4360FE71EF81E491F511D660F771FD1
:1022B000881F991F0694A1F70590079428F4E70E4C
:1022C000F81E491F561FC11D770F881F991F661FD3
:1022D0000694A1F70590079428F4F80E491F561F9D
:1022E000C71FD11D880F991F661F771F0694A1F77E
:1022F0000590079420F4490F561FC71FD81F990F48
:10230000661F771F881F0694A9F784911095177090
:1023100041F0D695C79557954795F794E7941A9548
:10232000C1F7EAE9F0E0689415901591359165914F
:10233000959105907FE27395E118F10A430B560BD6
:10234000C90BD009C0F7E10CF11E431F561FC91F6E
:10235000D01D7EF4703311F48A95E6CFE8940150D5
:1023600030F0080F0AF40027021708F4202F2395F5
:10237000022F7A3328F079E37D932A95E9F710C08C
:102380007D932A9589F606949795679537951795C5
:102390001794E118F10A430B560BC90BD00998F0BA
:1023A00023957E9173957A3308F070E37C93201324
:1023B000B8F77E9170617D9330F0839571E37D93E2
:1023C00070E32A95E1F71124EF90FF900F911F9190
:1023D000CF91DF91992787FD90950895DC01FC014D
:1023E000672F71917723E1F7329704C07C916D9349
:1023F00070836291AE17BF07C8F30895A6E1B0E0FD
:1024000044E050E00AC0242F17D0252F15D000C07B
:1024100012D0272F11C0DC01CB01FC01E199FECFC6
:1024200006C0FFBBEEBBE09A31960DB20D92415053
:102430005040B8F70895262FE199FECF9FBB8EBB81
:102440002DBB0FB6F894E29AE19A0FBE019608955B
:04245000F894FFCF2E
:10245400FFFFFFFFFFFFFFFFFFFFFFFFFFFFFFFF88
:10246400FFFFFFFF4C6974726573206C6566742D01
:10247400003330306D6C2066696C6C65642D20000F
:102484003530306D6C2066696C6C65642D200051AC
:1024940075616E746974792D2D4F52414E474553C1
:1024A4003A005175616E746974792D2D4D414E4712
:1024B4004F45533A005175616E746974792D2D47F7
:1024C40055415641533A005175616E746974792DC2
:1024D4002D4150504C45533A0050455243454E54BB
:1024E400414745204F52414E4745533A002025204D
:1024F4004F72616E6765730050455243454E5441B7
:102504004745204D414E474F45533A002025204D25
:10251400616E676F65730050455243454E544147A1
:1025240045204755415641533A00202520477561BF
:102534007661730050455243454E5441474520410E
:1025440050504C45533A002025204170706C6573FF
:1025540000434F4E46494755524154494F4E20443B
:102564004F4E4500205365636F6E64730020333013
:10257400306D6C20626F74746C65732063616E20BF
:1025840062652066696C6C656400203530306D6C62
:1025940020626F74746C65732063616E20626520C1
:1025A40066696C6C65640053455454494E47205326
:1025B40041564520434F4D504C45544500534554D6
:1025C40054494E4720524553554D4520434F4D5095
:1025D4004C4554450053455454494E4720524553A5
:1025E400554D45204641494C4544003330306D6CCF
:1025F40020426F74746C65206F7065726174696FCA
:102604006E2073656C6563746564003530306D6C81
:1026140020426F74746C65206F7065726174696FA9
:102624006E2073656C656374656400426F74746CCA
:10263400652046696C6C696E672E2E2E00426F749D
:10264400746C65205365616C696E672E2E2E004292
:102654006F74746C6520696E2053746F7261676562
:102664002E00416C6572742121204A7569636520CE
:102674006C6576656C2062656C6F77206D696E6938
:102684006D616C003E2031203A20446973706C61A6
:102694007920416D6F756E74206C65667420696E67
:1026A400204C6974657273003E2032203A204E75C6
:1026B4006D626572206F6620426F74746C6573205E
:1026C40046696C6C6564003E2033203A20416D6F8E
:1026D400756E74206F66206672756974206C656609
:1026E40074206166746572206D6978696E67206410
:1026F40072696E6B003E2034203A20506C616E7417
:10270400204F7065726174696F6E2054696D650045
:102714003E2035203A20506C616E742052657374EB
:102724002054696D6520003E2036203A205361769E
:10273400652043757272656E742053657474696E96
:10274400677320003E2037203A20526573756D650B
:102754002050726576696F75732053657474696E61
:102764006720003E2053656C656374204F70746964
:102774006F6E2028312D37293A200020496E76616A
:102784006C6964206F7074696F6E21002046696EF5
:1027940069736865642E2E00434F4E46494755526F
:1027A400452053595354454D00555345204B4559E5
:1027B40050414400416674657220696E70757420DE
:1027C400707265737320230057454C434F4D452069
:1027D400544F204D41434B204245564552414745B5
:1027E4005300504C414E5420494E495449414C49A0
:1027F4005A45440050524556494F55532053455469
:1028040054494E475320444554454354454400528B
:102814006573756D65207468697320536574746994
:102824006E673F00592D2D287965732920202020BB
:10283400202020204E2D2D286E6F2900496E7661B0
:102844006C69642043686F69636500436F6E6669F1
:102854006775726174696F6E7320436F6D706C6518
:10286400746500506C616E742077696C6C207072B2
:102874006F636573733A20004C69747265732E003C
:04000005008005660C
:00000001FF
